:02000000CF2807
:02000800332C97
:10019E0003138316F0308600031383120F3086008C
:1001AE000313831681130313831601308700031381
:1001BE0083128701031383168801031383128801A8
:1001CE0003138312A601A701A801A901AA01AB017D
:1001DE00AC01AD01AE01AF01B001B101B201B3018D
:1001EE00B401B501B601B701B801B901BA01BB013D
:1001FE00BC01BD01BE01BF01C0019427E426142736
:10020E00212709294127A50025082A3A031945293E
:10021E002508233A03194E2914293208003A0319E6
:10022E0025293208013A03192D293208023A0319F9
:10023E0035293208033A03193D2909292508A60054
:10024E00C030AF272508BB27B20A09292508A70009
:10025E00C130AF272508BB27B20A09292508A800F7
:10026E00C330AF272508BB27B20A09292508A900E4
:10027E00C430AF272508BB27B20A0929A601A7015A
:10028E00A801A901AA01AB01B2012127092932084F
:10029E00043A031DA1292608323C031CA129260875
:1002AE00323A031D5E292708333C031CA129280876
:1002BE00353C031CA1292608D03EB3003308AA0002
:1002CE002A08AA072A08AA072A08AA073308AA078B
:1002DE003308AA072708D03EAA072808D03EB30045
:1002EE003308AB002B08AB072B08AB072B08AB076B
:1002FE003308AB073308AB072908D03EAB070130F4
:10030E00AF27EA275430BB274930BB274D30BB27D8
:10031E004530BB272030BB275330BB274530BB278A
:10032E005430BB27F327B201A601A701A801A901EA
:10033E00BE21E029D8274930BB274E30BB27563087
:10034E00BB274130BB274C30BB274930BB2744303D
:10035E00BB27C030AF275430BB274930BB274D30A9
:10036E00BB274530BB27F327B20121270929D82700
:10037E004D30BB274530BB274430BB274930BB2708
:10038E004330BB274930BB274E30BB274530BB27F8
:10039E002030BB273130BB27C030AF275F30BB27A3
:1003AE005F30BB273A30BB275F30BB275F30BB27A0
:1003BE0008004127A50025082A3A03191B2A2508FB
:1003CE00233A0319222A3208003A0319FB2932086C
:1003DE00013A0319032A3208023A03190B2A32088A
:1003EE00033A0319132AE0292508A600C030AF27C7
:1003FE002508BB27B20AE0292508A700C130AF2780
:10040E002508BB27B20AE0292508A800C330AF276C
:10041E002508BB27B20AE0292508A900C430AF275A
:10042E002508BB27B20AE029A601A701A801A90148
:10043E00B201BE21E0293208043A031D772A2608AC
:10044E00323C031C772A2608323A031D322A27082B
:10045E00333C031C772A2808353C031C772A2608D0
:10046E00D03EB3003308AC002C08AC072C08AC0708
:10047E002C08AC073308AC073308AC072708D03E6E
:10048E00AC072808D03EB3003308AD002D08AD07E9
:10049E002D08AD072D08AD073308AD073308AD079E
:1004AE002908D03EAD070130AF27EA274D30BB27D4
:1004BE004530BB274430BB272030BB273130BB270C
:1004CE002030BB275330BB274530BB275430BB27CA
:1004DE00F327B201A601A701A801A9019622B82A05
:1004EE00D8274930BB274E30BB275630BB2741306B
:1004FE00BB274C30BB274930BB274430BB27C0300D
:10050E00AF274D30BB274530BB274430BB272030AB
:10051E00BB273130BB27F327B201BE21E029D827F4
:10052E004D30BB274530BB274430BB274930BB2756
:10053E004330BB274930BB274E30BB274530BB2746
:10054E002030BB273230BB27C030AF275F30BB27F0
:10055E005F30BB273A30BB275F30BB275F30BB27EE
:10056E0008004127A50025082A3A0319F32A250871
:10057E00233A0319FA2A3208003A0319D32A320809
:10058E00013A0319DB2A3208023A0319E32A320828
:10059E00033A0319EB2AB82A2508A600C030AF2764
:1005AE002508BB27B20AB82A2508A700C130AF27F5
:1005BE002508BB27B20AB82A2508A800C330AF27E2
:1005CE002508BB27B20AB82A2508A900C430AF27D0
:1005DE002508BB27B20AB82AA601A701A801A901BE
:1005EE00B2019622B82A3208043A031D4F2B260870
:1005FE00323C031C4F2B2608323A031D0A2B2708C8
:10060E00333C031C4F2B2808353C031C4F2B26086C
:10061E00D03EB3003308AE002E08AE072E08AE074C
:10062E002E08AE073308AE073308AE072708D03EB4
:10063E00AE072808D03EB3003308AF002F08AF072F
:10064E002F08AF072F08AF073308AF073308AF07E0
:10065E002908D03EAF070130AF27EA274D30BB2720
:10066E004530BB274430BB272030BB273230BB2759
:10067E002030BB275330BB274530BB275430BB2718
:10068E00F327B201A601A701A801A9016E23902BA1
:10069E00D8274930BB274E30BB275630BB274130B9
:1006AE00BB274C30BB274930BB274430BB27C0305B
:1006BE00AF274D30BB274530BB274430BB272030FA
:1006CE00BB273230BB27F327B2019622B82AD82790
:1006DE004D30BB274530BB274430BB274930BB27A5
:1006EE004330BB274930BB274E30BB274530BB2795
:1006FE002030BB273330BB27C030AF275F30BB273E
:10070E005F30BB273A30BB275F30BB275F30BB273C
:10071E0008004127A50025082A3A0319CB2B2508E6
:10072E00233A0319D22B3208003A0319AB2B3208A5
:10073E00013A0319B32B3208023A0319BB2B3208C4
:10074E00033A0319C32B902B2508A600C030AF2700
:10075E002508BB27B20A902B2508A700C130AF276A
:10076E002508BB27B20A902B2508A800C330AF2757
:10077E002508BB27B20A902B2508A900C430AF2745
:10078E002508BB27B20A902BA601A701A801A90133
:10079E00B2016E23902B3208043A031DC52E260893
:1007AE00323C031CC52E2608323A031DE22B2708C5
:1007BE00333C031CC52E2808353C031CC52E2608C9
:1007CE00D03EB3003308B0003008B0073008B00791
:1007DE003008B0073308B0073308B0072708D03EFB
:1007EE00B0072808D03EB3003308B1003108B10776
:1007FE003108B1073108B1073308B1073308B10723
:10080E002908D03EB1070130AF27EA274D30BB276C
:10081E004530BB274430BB272030BB273330BB27A6
:10082E002030BB275330BB274530BB275430BB2766
:10083E00F32722245D2C0313831604308100031347
:10084E008312810103138312C101C20103138312A8
:10085E000B118B168B170800C300030EC4000A0879
:10086E00C500031383120B1D562C0B110313831299
:10087E00C10A41087A3A031D562CC1010130C2004B
:10088E00AB0A2B083C3A031D562CAB01AA0A2A08C8
:10089E00183A031D562CAA01BB01BC01BD01450827
:1008AE008A00440E8300C30E430E09006C2403130A
:1008BE0083123808031DD02CF525CA250313831285
:1008CE0042080319652CC2015D2C3B08031D842CC4
:1008DE002A082C02031C7C2C031D842C2B082D02B1
:1008EE00031C812C031D842C812C2C082A02013A16
:1008FE00031D842C0130B900B52C3C08031D9C2C23
:10090E002A082E02031C942C031D9C2C2B082F024C
:10091E00031C992C031D9C2C992C2E082A02013A9B
:10092E00031D9C2C0230B900B52C3D08031DB42CC0
:10093E002A083002031CAC2C031DB42C2B083102E8
:10094E00031CB12C031DB42CB12C30082A02013A21
:10095E00031DB42C0330B900B52C08003908013A38
:10096E000319C22C3908023A0319C72C3008BF00EC
:10097E003108C000CB2C2C08BF002D08C000CB2C9A
:10098E002E08BF002F08C0000130B800BA01BE010A
:10099E0008007B257025031383123A08031DEB2CE8
:1009AE00031383128710071187110313831239085B
:1009BE00013A031987143908023A03190715390841
:1009CE00033A03198715F02C0313831287100711AE
:1009DE008711EA27031383123A080319F82CBA0178
:1009EE00FA2C0130BA00031383120718042DE127E5
:1009FE00031383120718042D102D031383124208BC
:100A0E000319D12CC201BE0A3E08143A0319172D40
:100A1E00D12C52255925B8015F259C2514271D2D53
:100A2E005225B8015F25B22514271D2D2425031349
:100A3E0083123808031DD02C5D2C3B08031D322D6C
:100A4E003F082C02031D322D40082D02031D322DAE
:100A5E000130B9004D2D3C08031D402D3F082E02DC
:100A6E00031D402D40082F02031D402D0230B900FA
:100A7E004D2D3D08031D08003F083002031D0800E0
:100A8E0040083102031D08000330B9000130B800E0
:100A9E00BA01BE01080003138312871007118711D4
:100AAE000712080003138312071C592DE1270800B3
:100ABE003908013A03196A2D3908023A03196D2DC6
:100ACE000130BD0008000130BB0008000130BC0041
:100ADE0008008030A200031383120716DC270712CA
:100AEE00DC27A20B722D0800D8275430BB276130AB
:100AFE00BB276B30BB276530BB272030BB274D3063
:100B0E00BB276530BB276430BB276930BB276330FA
:100B1E00BB276930BB276E30BB276530BB27203023
:100B2E00BB273908303EBB270800D8274430BB27E7
:100B3E006F30BB277330BB276530BB272030BB27F8
:100B4E005430BB276130BB276B30BB276530BB27CA
:100B5E006E30BB270800D8274430BB276F30BB2729
:100B6E007330BB276530BB272030BB274D30BB27EA
:100B7E006930BB277330BB277330BB276530BB276B
:100B8E006430BB270800D8275430BB274930BB2719
:100B9E004D30BB274530BB272030BB272A08B3007A
:100BAE00B5263A30BB272B08B300B526C030AF2789
:100BBE004D30BB274530BB274430BB272030BB27E9
:100BCE003408303EBB272030BB273508B300B5268E
:100BDE003A30BB273608B300B5260800B701052604
:100BEE002D2659263708031D042E0130B4002C087B
:100BFE00B5002D08B60085269D2608003B08031D6E
:100C0E0008002A082C02031C08002C082A02031DC7
:100C1E00142E2B082D02031C080037080319242E4E
:100C2E002C083502031C080035082C02031D242E47
:100C3E002D083602031C080008000130B4002C08F1
:100C4E00B5002D08B6000130B70008003C08031DA2
:100C5E0008002A082E02031C08002E082A02031D73
:100C6E003C2E2B082F02031C080037080319502EA8
:100C7E002E083502031C080035082E02031D502EC7
:100C8E002F083602031C080036082F02031D502EB3
:100C9E0008000230B4002E08B5002F08B60001304F
:100CAE00B70008003D08031D08002A083002031C87
:100CBE00080030082A02031D682E2B083102031C7F
:100CCE000800370803197C2E30083502031C080073
:100CDE0035083002031D7C2E31083602031C080035
:100CEE0036083102031D7C2E08000330B400300894
:100CFE00B5003108B6000130B70008002E083502E5
:100D0E00031C080035082E02031D962E2F083602EE
:100D1E00031C080036082F02031D962E0800023011
:100D2E00B4002E08B5002F08B600080030083502B2
:100D3E00031C080035083002031DAE2E31083602A2
:100D4E00031C080036083102031DAE2E08000330C6
:100D5E00B4003008B5003108B6000800A0010A3012
:100D6E00B302031CBC2EA00AB62E0A30B30720080D
:100D7E00303EBB273308303EBB270800D82749300A
:100D8E00BB274E30BB275630BB274130BB274C30DC
:100D9E00BB274930BB274430BB27C030AF274D306F
:100DAE00BB274530BB274430BB272030BB27333011
:100DBE00BB27F327B2016E23902BD8275730BB27C2
:100DCE006530BB276C30BB276330BB276F30BB272A
:100DDE006D30BB276530BB272030BB277430BB2757
:100DEE006F30BB27C030AF274D30BB276530BB27D8
:100DFE006430BB272030BB275230BB276530BB2762
:100E0E006D30BB276930BB276E30BB276430BB27E4
:100E1E006530BB277230BB2708000A30A200FF30B6
:100E2E00A100FF30A000A00B1A2FA10B182FA20BB0
:100E3E00162F0800D8275330BB274530BB27543018
:100E4E00BB272030BB275430BB274930BB274D3042
:100E5E00BB274530BB273A30BB27C030AF275F30AA
:100E6E00BB275F30BB273A30BB275F30BB275F30D5
:100E7E00BB270800031383120E3086009227061A32
:100E8E004A2F31307F2F861A4E2F32307F2F061B7E
:100E9E00522F33307F2F0D3086009227061A592F8E
:100EAE0034307F2F861A5D2F35307F2F061B612F32
:100EBE0036307F2F0B3086009227061A682F373078
:100ECE007F2F861A6C2F38307F2F061B702F3930EC
:100EDE007F2F073086009227061A772F2A307F2F12
:100EEE00861A7B2F30307F2F061B8D2F23307F2FBE
:100EFE00A500E1270313831200308600060870391F
:100F0E00703A031D812FE127250808000313831271
:100F1E000F308600412FDC270800EA2703138312C7
:100F2E00881008110330C827EA270330C827EA279C
:100F3E000330C827EA270230C827EA272830AF2710
:100F4E000C30AF270630AF270130AF27EA27080055
:100F5E00A300031383128810230E0F39C82723080A
:100F6E000F39C827DC270800A30003138312881447
:100F7E00230E0F39C82723080F39C827DC278810FE
:100F8E0008000F39A4000313831208080F398800D4
:100F9E00240EF03988040815000000000000081126
:100FAE0008000130AF27EA270800FF30A000A00B91
:100FBE00DE2F08001830A100FF30A000A00BE52F97
:100FCE00A10BE32F08002030A100FF30A000A00BE2
:100FDE00EE2FA10BEC2F08000530A200FF30A10070
:100FEE00FF30A000A00BF92FA10BF72FA20BF52FAE
:020FFE000800E9
:02400E00313F40
:00000001FF
